{
  "contractName": "AuctionFactory",
  "abi": [
    {
      "inputs": [],
      "stateMutability": "nonpayable",
      "type": "constructor"
    },
    {
      "anonymous": false,
      "inputs": [
        {
          "indexed": false,
          "internalType": "address",
          "name": "auctionAddress",
          "type": "address"
        },
        {
          "indexed": false,
          "internalType": "address",
          "name": "ownerAddress",
          "type": "address"
        }
      ],
      "name": "AuctionCreated",
      "type": "event"
    },
    {
      "inputs": [
        {
          "internalType": "uint256",
          "name": "",
          "type": "uint256"
        }
      ],
      "name": "auctionSummaries",
      "outputs": [
        {
          "internalType": "address",
          "name": "auctionAddress",
          "type": "address"
        },
        {
          "internalType": "string",
          "name": "item",
          "type": "string"
        },
        {
          "internalType": "string",
          "name": "itemDescription",
          "type": "string"
        },
        {
          "internalType": "uint256",
          "name": "startPrice",
          "type": "uint256"
        }
      ],
      "stateMutability": "view",
      "type": "function",
      "constant": true
    },
    {
      "inputs": [
        {
          "internalType": "string",
          "name": "_item",
          "type": "string"
        },
        {
          "internalType": "string",
          "name": "_itemDescription",
          "type": "string"
        },
        {
          "internalType": "uint256",
          "name": "_startPrice",
          "type": "uint256"
        }
      ],
      "name": "createAuction",
      "outputs": [],
      "stateMutability": "nonpayable",
      "type": "function"
    },
    {
      "inputs": [],
      "name": "getAuctionSummaries",
      "outputs": [
        {
          "components": [
            {
              "internalType": "address",
              "name": "auctionAddress",
              "type": "address"
            },
            {
              "internalType": "string",
              "name": "item",
              "type": "string"
            },
            {
              "internalType": "string",
              "name": "itemDescription",
              "type": "string"
            },
            {
              "internalType": "uint256",
              "name": "startPrice",
              "type": "uint256"
            }
          ],
          "internalType": "struct AuctionFactory.AuctionSummary[]",
          "name": "",
          "type": "tuple[]"
        }
      ],
      "stateMutability": "view",
      "type": "function",
      "constant": true
    }
  ],
  "bytecode": "0x608060405234801561001057600080fd5b50336000806101000a81548173ffffffffffffffffffffffffffffffffffffffff021916908373ffffffffffffffffffffffffffffffffffffffff1602179055506121b5806100606000396000f3fe60806040523480156200001157600080fd5b5060043610620000465760003560e01c806312a15968146200004b578063b90718351462000084578063ddf2070614620000a6575b600080fd5b620000696004803603810190620000639190620007f4565b620000c6565b6040516200007b949392919062000a3e565b60405180910390f35b6200008e6200025f565b6040516200009d919062000a99565b60405180910390f35b620000c46004803603810190620000be91906200076c565b6200046c565b005b60018181548110620000d757600080fd5b90600052602060002090600402016000915090508060000160009054906101000a900473ffffffffffffffffffffffffffffffffffffffff1690806001018054600181600116156101000203166002900480601f016020809104026020016040519081016040528092919081815260200182805460018160011615610100020316600290048015620001ad5780601f106200018157610100808354040283529160200191620001ad565b820191906000526020600020905b8154815290600101906020018083116200018f57829003601f168201915b505050505090806002018054600181600116156101000203166002900480601f0160208091040260200160405190810160405280929190818152602001828054600181600116156101000203166002900480156200024f5780601f1062000223576101008083540402835291602001916200024f565b820191906000526020600020905b8154815290600101906020018083116200023157829003601f168201915b5050505050908060030154905084565b60606001805480602002602001604051908101604052809291908181526020016000905b828210156200046357838290600052602060002090600402016040518060800160405290816000820160009054906101000a900473ffffffffffffffffffffffffffffffffffffffff1673ffffffffffffffffffffffffffffffffffffffff1673ffffffffffffffffffffffffffffffffffffffff168152602001600182018054600181600116156101000203166002900480601f0160208091040260200160405190810160405280929190818152602001828054600181600116156101000203166002900480156200039a5780601f106200036e576101008083540402835291602001916200039a565b820191906000526020600020905b8154815290600101906020018083116200037c57829003601f168201915b50505050508152602001600282018054600181600116156101000203166002900480601f016020809104026020016040519081016040528092919081815260200182805460018160011615610100020316600290048015620004405780601f10620004145761010080835404028352916020019162000440565b820191906000526020600020905b8154815290600101906020018083116200042257829003601f168201915b505050505081526020016003820154815250508152602001906001019062000283565b50505050905090565b6000838383336040516200048090620005f7565b6200048f949392919062000abd565b604051809103906000f080158015620004ac573d6000803e3d6000fd5b5090506000819050620004be62000605565b60405180608001604052808373ffffffffffffffffffffffffffffffffffffffff168152602001878152602001868152602001858152509050600181908060018154018082558091505060019003906000526020600020906004020160009091909190915060008201518160000160006101000a81548173ffffffffffffffffffffffffffffffffffffffff021916908373ffffffffffffffffffffffffffffffffffffffff16021790555060208201518160010190805190602001906200058892919062000643565b506040820151816002019080519060200190620005a792919062000643565b506060820151816003015550507f0bdb7849ed0b0249d0f995067a2ca77769f68ab4c654931e262676effeb395f28233604051620005e792919062000a11565b60405180910390a1505050505050565b61149a8062000ce683390190565b6040518060800160405280600073ffffffffffffffffffffffffffffffffffffffff1681526020016060815260200160608152602001600081525090565b828054600181600116156101000203166002900490600052602060002090601f0160209004810192826200067b5760008555620006c7565b82601f106200069657805160ff1916838001178555620006c7565b82800160010185558215620006c7579182015b82811115620006c6578251825591602001919060010190620006a9565b5b509050620006d69190620006da565b5090565b5b80821115620006f5576000816000905550600101620006db565b5090565b600082601f8301126200070b57600080fd5b8135620007226200071c8262000b4c565b62000b18565b915080825260208301602083018583830111156200073f57600080fd5b6200074c83828462000c73565b50505092915050565b600081359050620007668162000ccb565b92915050565b6000806000606084860312156200078257600080fd5b600084013567ffffffffffffffff8111156200079d57600080fd5b620007ab86828701620006f9565b935050602084013567ffffffffffffffff811115620007c957600080fd5b620007d786828701620006f9565b9250506040620007ea8682870162000755565b9150509250925092565b6000602082840312156200080757600080fd5b6000620008178482850162000755565b91505092915050565b60006200082e83836200097d565b905092915050565b620008418162000c37565b82525050565b620008528162000bf9565b82525050565b620008638162000be5565b82525050565b620008748162000be5565b82525050565b6000620008878262000b8f565b62000893818562000bb2565b935083602082028501620008a78562000b7f565b8060005b85811015620008e95784840389528151620008c7858262000820565b9450620008d48362000ba5565b925060208a01995050600181019050620008ab565b50829750879550505050505092915050565b6000620009088262000b9a565b62000914818562000bc3565b93506200092681856020860162000c82565b620009318162000cba565b840191505092915050565b6000620009498262000b9a565b62000955818562000bd4565b93506200096781856020860162000c82565b620009728162000cba565b840191505092915050565b600060808301600083015162000997600086018262000858565b5060208301518482036020860152620009b18282620008fb565b91505060408301518482036040860152620009cd8282620008fb565b9150506060830151620009e46060860182620009ef565b508091505092915050565b620009fa8162000c2d565b82525050565b62000a0b8162000c2d565b82525050565b600060408201905062000a28600083018562000869565b62000a37602083018462000836565b9392505050565b600060808201905062000a55600083018762000869565b818103602083015262000a6981866200093c565b9050818103604083015262000a7f81856200093c565b905062000a90606083018462000a00565b95945050505050565b6000602082019050818103600083015262000ab581846200087a565b905092915050565b6000608082019050818103600083015262000ad981876200093c565b9050818103602083015262000aef81866200093c565b905062000b00604083018562000a00565b62000b0f606083018462000847565b95945050505050565b6000604051905081810181811067ffffffffffffffff8211171562000b425762000b4162000cb8565b5b8060405250919050565b600067ffffffffffffffff82111562000b6a5762000b6962000cb8565b5b601f19601f8301169050602081019050919050565b6000819050602082019050919050565b600081519050919050565b600081519050919050565b6000602082019050919050565b600082825260208201905092915050565b600082825260208201905092915050565b600082825260208201905092915050565b600062000bf28262000c0d565b9050919050565b600062000c068262000c0d565b9050919050565b600073ffffffffffffffffffffffffffffffffffffffff82169050919050565b6000819050919050565b600062000c448262000c4b565b9050919050565b600062000c588262000c5f565b9050919050565b600062000c6c8262000c0d565b9050919050565b82818337600083830152505050565b60005b8381101562000ca257808201518184015260208101905062000c85565b8381111562000cb2576000848401525b50505050565bfe5b6000601f19601f8301169050919050565b62000cd68162000c2d565b811462000ce257600080fd5b5056fe60806040523480156200001157600080fd5b506040516200149a3803806200149a833981810160405281019062000037919062000266565b83600090805190602001906200004f92919062000126565b5082600190805190602001906200006892919062000126565b508160028190555080600360006101000a81548173ffffffffffffffffffffffffffffffffffffffff021916908373ffffffffffffffffffffffffffffffffffffffff160217905550600060048190555033600560006101000a81548173ffffffffffffffffffffffffffffffffffffffff021916908373ffffffffffffffffffffffffffffffffffffffff160217905550426006819055506000600760006101000a81548160ff0219169083151502179055505050505062000415565b828054600181600116156101000203166002900490600052602060002090601f0160209004810192826200015e5760008555620001aa565b82601f106200017957805160ff1916838001178555620001aa565b82800160010185558215620001aa579182015b82811115620001a95782518255916020019190600101906200018c565b5b509050620001b99190620001bd565b5090565b5b80821115620001d8576000816000905550600101620001be565b5090565b600081519050620001ed81620003e1565b92915050565b600082601f8301126200020557600080fd5b81516200021c620002168262000338565b62000304565b915080825260208301602083018583830111156200023957600080fd5b62000246838284620003a9565b50505092915050565b6000815190506200026081620003fb565b92915050565b600080600080608085870312156200027d57600080fd5b600085015167ffffffffffffffff8111156200029857600080fd5b620002a687828801620001f3565b945050602085015167ffffffffffffffff811115620002c457600080fd5b620002d287828801620001f3565b9350506040620002e5878288016200024f565b9250506060620002f887828801620001dc565b91505092959194509250565b6000604051905081810181811067ffffffffffffffff821117156200032e576200032d620003df565b5b8060405250919050565b600067ffffffffffffffff821115620003565762000355620003df565b5b601f19601f8301169050602081019050919050565b600062000378826200037f565b9050919050565b600073ffffffffffffffffffffffffffffffffffffffff82169050919050565b6000819050919050565b60005b83811015620003c9578082015181840152602081019050620003ac565b83811115620003d9576000848401525b50505050565bfe5b620003ec816200036b565b8114620003f857600080fd5b50565b62000406816200039f565b81146200041257600080fd5b50565b61107580620004256000396000f3fe60806040526004361061009c5760003560e01c80639f365226116100645780639f3652261461015f578063b6549f751461018a578063c26be485146101b5578063efbe1c1c146101e0578063f1a9af89146101f7578063f2a4a82e146102225761009c565b806312fa6feb146100a157806314bcec9f146100cc5780631998aeef146100f75780634051ddac146101015780638da5cb5b14610134575b600080fd5b3480156100ad57600080fd5b506100b661024d565b6040516100c39190610e6d565b60405180910390f35b3480156100d857600080fd5b506100e1610260565b6040516100ee9190610f6a565b60405180910390f35b6100ff610266565b005b34801561010d57600080fd5b50610116610497565b60405161012b99989796959493929190610dd2565b60405180910390f35b34801561014057600080fd5b5061014961065c565b6040516101569190610db7565b60405180910390f35b34801561016b57600080fd5b50610174610682565b6040516101819190610e88565b60405180910390f35b34801561019657600080fd5b5061019f610720565b6040516101ac9190610e6d565b60405180910390f35b3480156101c157600080fd5b506101ca610940565b6040516101d79190610f6a565b60405180910390f35b3480156101ec57600080fd5b506101f5610946565b005b34801561020357600080fd5b5061020c610aac565b6040516102199190610f6a565b60405180910390f35b34801561022e57600080fd5b50610237610ab2565b6040516102449190610e88565b60405180910390f35b600760009054906101000a900460ff1681565b60065481565b600760009054906101000a900460ff16156102b6576040517f08c379a00000000000000000000000000000000000000000000000000000000081526004016102ad90610f0a565b60405180910390fd5b60025434116102fa576040517f08c379a00000000000000000000000000000000000000000000000000000000081526004016102f190610f4a565b60405180910390fd5b600454341161033e576040517f08c379a000000000000000000000000000000000000000000000000000000000815260040161033590610f4a565b60405180910390fd5b600360009054906101000a900473ffffffffffffffffffffffffffffffffffffffff1673ffffffffffffffffffffffffffffffffffffffff163373ffffffffffffffffffffffffffffffffffffffff1614156103cf576040517f08c379a00000000000000000000000000000000000000000000000000000000081526004016103c690610f2a565b60405180910390fd5b6000600454111561044657600560009054906101000a900473ffffffffffffffffffffffffffffffffffffffff1673ffffffffffffffffffffffffffffffffffffffff166108fc6004549081150290604051600060405180830381858888f19350505050158015610444573d6000803e3d6000fd5b505b3460048190555033600560006101000a81548173ffffffffffffffffffffffffffffffffffffffff021916908373ffffffffffffffffffffffffffffffffffffffff16021790555042600681905550565b6000606080600080600080600080600360009054906101000a900473ffffffffffffffffffffffffffffffffffffffff1660006001600454600560009054906101000a900473ffffffffffffffffffffffffffffffffffffffff16600254600760009054906101000a900460ff164742878054600181600116156101000203166002900480601f01602080910402602001604051908101604052809291908181526020018280546001816001161561010002031660029004801561059c5780601f106105715761010080835404028352916020019161059c565b820191906000526020600020905b81548152906001019060200180831161057f57829003601f168201915b50505050509750868054600181600116156101000203166002900480601f0160208091040260200160405190810160405280929190818152602001828054600181600116156101000203166002900480156106385780601f1061060d57610100808354040283529160200191610638565b820191906000526020600020905b81548152906001019060200180831161061b57829003601f168201915b50505050509650985098509850985098509850985098509850909192939495969798565b600360009054906101000a900473ffffffffffffffffffffffffffffffffffffffff1681565b60018054600181600116156101000203166002900480601f0160208091040260200160405190810160405280929190818152602001828054600181600116156101000203166002900480156107185780601f106106ed57610100808354040283529160200191610718565b820191906000526020600020905b8154815290600101906020018083116106fb57829003601f168201915b505050505081565b6000600760009054906101000a900460ff1615610772576040517f08c379a000000000000000000000000000000000000000000000000000000000815260040161076990610f0a565b60405180910390fd5b600560009054906101000a900473ffffffffffffffffffffffffffffffffffffffff1673ffffffffffffffffffffffffffffffffffffffff163373ffffffffffffffffffffffffffffffffffffffff1614610802576040517f08c379a00000000000000000000000000000000000000000000000000000000081526004016107f990610eaa565b60405180910390fd5b60056006544203101561084a576040517f08c379a000000000000000000000000000000000000000000000000000000000815260040161084190610eea565b60405180910390fd5b600560009054906101000a900473ffffffffffffffffffffffffffffffffffffffff1673ffffffffffffffffffffffffffffffffffffffff166108fc479081150290604051600060405180830381858888f193505050501580156108b2573d6000803e3d6000fd5b50600360009054906101000a900473ffffffffffffffffffffffffffffffffffffffff16600560006101000a81548173ffffffffffffffffffffffffffffffffffffffff021916908373ffffffffffffffffffffffffffffffffffffffff16021790555060006004819055506001600760006101000a81548160ff0219169083151502179055506001905090565b60045481565b600360009054906101000a900473ffffffffffffffffffffffffffffffffffffffff1673ffffffffffffffffffffffffffffffffffffffff163373ffffffffffffffffffffffffffffffffffffffff16146109d6576040517f08c379a00000000000000000000000000000000000000000000000000000000081526004016109cd90610eca565b60405180910390fd5b600760009054906101000a900460ff1615610a26576040517f08c379a0000000000000000000000000000000000000000000000000000000008152600401610a1d90610f0a565b60405180910390fd5b600360009054906101000a900473ffffffffffffffffffffffffffffffffffffffff1673ffffffffffffffffffffffffffffffffffffffff166108fc479081150290604051600060405180830381858888f19350505050158015610a8e573d6000803e3d6000fd5b506001600760006101000a81548160ff021916908315150217905550565b60025481565b60008054600181600116156101000203166002900480601f016020809104026020016040519081016040528092919081815260200182805460018160011615610100020316600290048015610b485780601f10610b1d57610100808354040283529160200191610b48565b820191906000526020600020905b815481529060010190602001808311610b2b57829003601f168201915b505050505081565b610b5981610fb3565b82525050565b610b6881610fa1565b82525050565b610b7781610fc5565b82525050565b6000610b8882610f85565b610b928185610f90565b9350610ba2818560208601610ffb565b610bab8161102e565b840191505092915050565b6000610bc3601f83610f90565b91507f4f6e6c7920686967686573742062757965722063616e206f7065726174652e006000830152602082019050919050565b6000610c03601783610f90565b91507f4f6e6c79206f776e65722063616e206f7065726174652e0000000000000000006000830152602082019050919050565b6000610c43605b83610f90565b91507f5265766f6b652063616e206f6e6c79206265207265717565737465642061667460008301527f6572206f6e65207765656b206966206f776e657220646f6573206e6f7420636f60208301527f6e6669726d20616e6420656e6420746869732061756374696f6e2e00000000006040830152606082019050919050565b6000610ccf601683610f90565b91507f546869732061756374696f6e20697320656e6465642e000000000000000000006000830152602082019050919050565b6000610d0f602983610f90565b91507f43616e206e6f742062696420666f7220796f7572206f776e2061756374696f6e60008301527f2070726f647563742100000000000000000000000000000000000000000000006020830152604082019050919050565b6000610d75601b83610f90565b91507f506c656173652062696420612068696768657220616d6f756e742e00000000006000830152602082019050919050565b610db181610ff1565b82525050565b6000602082019050610dcc6000830184610b50565b92915050565b600061012082019050610de8600083018c610b5f565b8181036020830152610dfa818b610b7d565b90508181036040830152610e0e818a610b7d565b9050610e1d6060830189610da8565b610e2a6080830188610b5f565b610e3760a0830187610da8565b610e4460c0830186610b6e565b610e5160e0830185610da8565b610e5f610100830184610da8565b9a9950505050505050505050565b6000602082019050610e826000830184610b6e565b92915050565b60006020820190508181036000830152610ea28184610b7d565b905092915050565b60006020820190508181036000830152610ec381610bb6565b9050919050565b60006020820190508181036000830152610ee381610bf6565b9050919050565b60006020820190508181036000830152610f0381610c36565b9050919050565b60006020820190508181036000830152610f2381610cc2565b9050919050565b60006020820190508181036000830152610f4381610d02565b9050919050565b60006020820190508181036000830152610f6381610d68565b9050919050565b6000602082019050610f7f6000830184610da8565b92915050565b600081519050919050565b600082825260208201905092915050565b6000610fac82610fd1565b9050919050565b6000610fbe82610fd1565b9050919050565b60008115159050919050565b600073ffffffffffffffffffffffffffffffffffffffff82169050919050565b6000819050919050565b60005b83811015611019578082015181840152602081019050610ffe565b83811115611028576000848401525b50505050565b6000601f19601f830116905091905056fea264697066735822122064ea3a01dda1987d3a38d26652c186d7ea4b989d77a53a396e1fd9bbd253112364736f6c63430007040033a2646970667358221220c3fe87d1afa7abaa5e86049ae81735cf730b1b0d2e274eda996bc8bdd0b61fe464736f6c63430007040033",
  "immutableReferences": {},
  "source": "// SPDX-License-Identifier: MIT\r\npragma solidity ^0.7.4;\r\npragma experimental ABIEncoderV2;\r\n\r\ncontract Auction {\r\n    string public item;\r\n    string public itemDescription;\r\n    uint public startPrice;\r\n    address payable public owner;\r\n\r\n    uint public currentHighestBidding;\r\n    address payable private currentHighestBuyer;\r\n    uint public lastUpdateTimestamp;\r\n    bool public ended;\r\n\r\n    constructor(string memory _item, string memory _itemDescription, uint _startPrice, address payable _owner){\r\n        item = _item;\r\n        itemDescription = _itemDescription;\r\n        startPrice = _startPrice;\r\n        owner = _owner;\r\n\r\n        currentHighestBidding = 0;\r\n        currentHighestBuyer = msg.sender;\r\n        lastUpdateTimestamp = block.timestamp;\r\n        ended = false;\r\n    }\r\n\r\n    modifier restricted() {\r\n        require(msg.sender == owner, \"Only owner can operate.\");\r\n        _;\r\n    }\r\n\r\n    modifier openAuction() {\r\n        require(!ended, \"This auction is ended.\");\r\n        _;\r\n    }\r\n\r\n    function bid() public payable openAuction{\r\n        require(msg.value > startPrice, \"Please bid a higher amount.\");\r\n        require(msg.value > currentHighestBidding, \"Please bid a higher amount.\");\r\n        require(msg.sender != owner, \"Can not bid for your own auction product!\");\r\n        // Use currentHighestBidding to decide if this is the first bid\r\n        // because address(this).balance has been updated when executing this function\r\n        if (currentHighestBidding > 0) {\r\n            currentHighestBuyer.transfer(currentHighestBidding);\r\n        }\r\n        currentHighestBidding = msg.value;\r\n        currentHighestBuyer = msg.sender;\r\n        lastUpdateTimestamp = block.timestamp;\r\n    }\r\n\r\n    function end() public restricted openAuction {\r\n        owner.transfer(address(this).balance);\r\n        ended = true;\r\n    }\r\n\r\n    function revoke() public openAuction returns (bool) {\r\n        require(msg.sender == currentHighestBuyer, \"Only highest buyer can operate.\");\r\n        require(block.timestamp - lastUpdateTimestamp >= 5, \"Revoke can only be requested after one week if owner does not confirm and end this auction.\");\r\n        currentHighestBuyer.transfer(address(this).balance);\r\n        currentHighestBuyer = owner;\r\n        currentHighestBidding = 0;\r\n        ended = true;\r\n        return true;\r\n    }\r\n\r\n    function getSummary() public view returns (\r\n        address, string memory, string memory, uint, address, uint, bool, uint, uint\r\n    ) {\r\n        return (\r\n        owner,\r\n        item,\r\n        itemDescription,\r\n        currentHighestBidding,\r\n        currentHighestBuyer,\r\n        startPrice,\r\n        ended,\r\n        address(this).balance,\r\n        block.timestamp\r\n        );\r\n    }\r\n}\r\n\r\ncontract AuctionFactory {\r\n    struct AuctionSummary {\r\n        address auctionAddress;\r\n        string item;\r\n        string itemDescription;\r\n        uint startPrice;\r\n    }\r\n    \r\n    address private platform;\r\n    AuctionSummary[] public auctionSummaries;\r\n    event AuctionCreated(address auctionAddress, address ownerAddress);\r\n\r\n    constructor() {\r\n        platform = msg.sender;\r\n    }\r\n\r\n    function createAuction(string memory _item, string memory _itemDescription, uint _startPrice) public {\r\n        Auction newAuction = new Auction(_item, _itemDescription, _startPrice, msg.sender);\r\n        address newAuctionAddress = address(newAuction);\r\n        AuctionSummary memory auctionSummary = AuctionSummary ({\r\n            auctionAddress: newAuctionAddress,\r\n            item: _item,\r\n            itemDescription: _itemDescription,\r\n            startPrice: _startPrice\r\n        });\r\n        auctionSummaries.push(auctionSummary);\r\n        emit AuctionCreated(newAuctionAddress, msg.sender);\r\n    }\r\n\r\n    function getAuctionSummaries() public view returns (AuctionSummary[] memory) {\r\n        return auctionSummaries;\r\n    }\r\n}\r\n",
  "sourcePath": "C:/Users/frenh/Dropbox/WebstormProjects/eth-auction/contracts/Auction.sol",
  "compiler": {
    "name": "solc",
    "version": "0.7.4+commit.3f05b770.Emscripten.clang"
  },
  "schemaVersion": "3.3.1",
  "updatedAt": "2020-11-21T12:48:31.258Z",
  "networkType": "ethereum",
  "devdoc": {
    "kind": "dev",
    "methods": {},
    "version": 1
  },
  "userdoc": {
    "kind": "user",
    "methods": {},
    "version": 1
  }
}