{
  "contractName": "Auction",
  "abi": [
    {
      "inputs": [
        {
          "internalType": "string",
          "name": "_item",
          "type": "string"
        },
        {
          "internalType": "string",
          "name": "_itemDescription",
          "type": "string"
        },
        {
          "internalType": "uint256",
          "name": "_startPrice",
          "type": "uint256"
        },
        {
          "internalType": "address payable",
          "name": "_owner",
          "type": "address"
        }
      ],
      "stateMutability": "nonpayable",
      "type": "constructor"
    },
    {
      "anonymous": false,
      "inputs": [
        {
          "indexed": false,
          "internalType": "address",
          "name": "auctionAddress",
          "type": "address"
        },
        {
          "indexed": false,
          "internalType": "address",
          "name": "sender",
          "type": "address"
        }
      ],
      "name": "AuctionUpdated",
      "type": "event"
    },
    {
      "inputs": [],
      "name": "confirmTimestamp",
      "outputs": [
        {
          "internalType": "uint256",
          "name": "",
          "type": "uint256"
        }
      ],
      "stateMutability": "view",
      "type": "function"
    },
    {
      "inputs": [],
      "name": "currentHighestBidding",
      "outputs": [
        {
          "internalType": "uint256",
          "name": "",
          "type": "uint256"
        }
      ],
      "stateMutability": "view",
      "type": "function"
    },
    {
      "inputs": [],
      "name": "currentState",
      "outputs": [
        {
          "internalType": "enum Auction.AuctionState",
          "name": "",
          "type": "uint8"
        }
      ],
      "stateMutability": "view",
      "type": "function"
    },
    {
      "inputs": [],
      "name": "item",
      "outputs": [
        {
          "internalType": "string",
          "name": "",
          "type": "string"
        }
      ],
      "stateMutability": "view",
      "type": "function"
    },
    {
      "inputs": [],
      "name": "itemDescription",
      "outputs": [
        {
          "internalType": "string",
          "name": "",
          "type": "string"
        }
      ],
      "stateMutability": "view",
      "type": "function"
    },
    {
      "inputs": [],
      "name": "lastUpdateTimestamp",
      "outputs": [
        {
          "internalType": "uint256",
          "name": "",
          "type": "uint256"
        }
      ],
      "stateMutability": "view",
      "type": "function"
    },
    {
      "inputs": [],
      "name": "owner",
      "outputs": [
        {
          "internalType": "address payable",
          "name": "",
          "type": "address"
        }
      ],
      "stateMutability": "view",
      "type": "function"
    },
    {
      "inputs": [],
      "name": "shippingInfo",
      "outputs": [
        {
          "internalType": "string",
          "name": "",
          "type": "string"
        }
      ],
      "stateMutability": "view",
      "type": "function"
    },
    {
      "inputs": [],
      "name": "startPrice",
      "outputs": [
        {
          "internalType": "uint256",
          "name": "",
          "type": "uint256"
        }
      ],
      "stateMutability": "view",
      "type": "function"
    },
    {
      "inputs": [],
      "name": "bid",
      "outputs": [],
      "stateMutability": "payable",
      "type": "function"
    },
    {
      "inputs": [],
      "name": "end",
      "outputs": [],
      "stateMutability": "nonpayable",
      "type": "function"
    },
    {
      "inputs": [
        {
          "internalType": "string",
          "name": "_shippingInfo",
          "type": "string"
        }
      ],
      "name": "updateShippingInfo",
      "outputs": [],
      "stateMutability": "nonpayable",
      "type": "function"
    },
    {
      "inputs": [],
      "name": "cancel",
      "outputs": [],
      "stateMutability": "nonpayable",
      "type": "function"
    },
    {
      "inputs": [],
      "name": "revoke",
      "outputs": [],
      "stateMutability": "nonpayable",
      "type": "function"
    },
    {
      "inputs": [],
      "name": "getSummary",
      "outputs": [
        {
          "internalType": "address",
          "name": "",
          "type": "address"
        },
        {
          "internalType": "string",
          "name": "",
          "type": "string"
        },
        {
          "internalType": "string",
          "name": "",
          "type": "string"
        },
        {
          "internalType": "uint256",
          "name": "",
          "type": "uint256"
        },
        {
          "internalType": "address",
          "name": "",
          "type": "address"
        },
        {
          "internalType": "uint256",
          "name": "",
          "type": "uint256"
        },
        {
          "internalType": "enum Auction.AuctionState",
          "name": "",
          "type": "uint8"
        },
        {
          "internalType": "string",
          "name": "",
          "type": "string"
        }
      ],
      "stateMutability": "view",
      "type": "function"
    }
  ],
  "bytecode": "0x60806040523480156200001157600080fd5b5060405162002017380380620020178339818101604052810190620000379190620002a0565b83600090805190602001906200004f92919062000160565b5082600190805190602001906200006892919062000160565b508160038190555080600460006101000a81548173ffffffffffffffffffffffffffffffffffffffff021916908373ffffffffffffffffffffffffffffffffffffffff1602179055506040518060200160405280600081525060029080519060200190620000d892919062000160565b50600060058190555033600660006101000a81548173ffffffffffffffffffffffffffffffffffffffff021916908373ffffffffffffffffffffffffffffffffffffffff1602179055504260078190555060006008819055506000600960006101000a81548160ff021916908360048111156200015157fe5b0217905550505050506200044f565b828054600181600116156101000203166002900490600052602060002090601f016020900481019282620001985760008555620001e4565b82601f10620001b357805160ff1916838001178555620001e4565b82800160010185558215620001e4579182015b82811115620001e3578251825591602001919060010190620001c6565b5b509050620001f39190620001f7565b5090565b5b8082111562000212576000816000905550600101620001f8565b5090565b60008151905062000227816200041b565b92915050565b600082601f8301126200023f57600080fd5b815162000256620002508262000372565b6200033e565b915080825260208301602083018583830111156200027357600080fd5b62000280838284620003e3565b50505092915050565b6000815190506200029a8162000435565b92915050565b60008060008060808587031215620002b757600080fd5b600085015167ffffffffffffffff811115620002d257600080fd5b620002e0878288016200022d565b945050602085015167ffffffffffffffff811115620002fe57600080fd5b6200030c878288016200022d565b93505060406200031f8782880162000289565b9250506060620003328782880162000216565b91505092959194509250565b6000604051905081810181811067ffffffffffffffff8211171562000368576200036762000419565b5b8060405250919050565b600067ffffffffffffffff82111562000390576200038f62000419565b5b601f19601f8301169050602081019050919050565b6000620003b282620003b9565b9050919050565b600073ffffffffffffffffffffffffffffffffffffffff82169050919050565b6000819050919050565b60005b8381101562000403578082015181840152602081019050620003e6565b8381111562000413576000848401525b50505050565bfe5b6200042681620003a5565b81146200043257600080fd5b50565b6200044081620003d9565b81146200044c57600080fd5b50565b611bb8806200045f6000396000f3fe6080604052600436106100e85760003560e01c8063b6549f751161008a578063efbe1c1c11610059578063efbe1c1c14610282578063f1a9af8914610299578063f2713389146102c4578063f2a4a82e146102ef576100e8565b8063b6549f7514610200578063bb97612714610217578063c26be48514610240578063ea8a1af01461026b576100e8565b80634051ddac116100c65780634051ddac1461014d5780635a527d991461017f5780638da5cb5b146101aa5780639f365226146101d5576100e8565b80630c3f6acf146100ed57806314bcec9f146101185780631998aeef14610143575b600080fd5b3480156100f957600080fd5b5061010261031a565b60405161010f919061187b565b60405180910390f35b34801561012457600080fd5b5061012d61032d565b60405161013a91906119d8565b60405180910390f35b61014b610333565b005b34801561015957600080fd5b506101626105b5565b6040516101769897969594939291906117e8565b60405180910390f35b34801561018b57600080fd5b50610194610812565b6040516101a191906119d8565b60405180910390f35b3480156101b657600080fd5b506101bf610818565b6040516101cc91906117a4565b60405180910390f35b3480156101e157600080fd5b506101ea61083e565b6040516101f79190611896565b60405180910390f35b34801561020c57600080fd5b506102156108dc565b005b34801561022357600080fd5b5061023e600480360381019061023991906113bb565b610bc7565b005b34801561024c57600080fd5b50610255610daa565b60405161026291906119d8565b60405180910390f35b34801561027757600080fd5b50610280610db0565b005b34801561028e57600080fd5b50610297610fe7565b005b3480156102a557600080fd5b506102ae61117a565b6040516102bb91906119d8565b60405180910390f35b3480156102d057600080fd5b506102d9611180565b6040516102e69190611896565b60405180910390f35b3480156102fb57600080fd5b5061030461121e565b6040516103119190611896565b60405180910390f35b600960009054906101000a900460ff1681565b60075481565b6000600481111561034057fe5b600960009054906101000a900460ff16600481111561035b57fe5b1461039b576040517f08c379a000000000000000000000000000000000000000000000000000000000815260040161039290611958565b60405180910390fd5b60035434116103df576040517f08c379a00000000000000000000000000000000000000000000000000000000081526004016103d6906119b8565b60405180910390fd5b6005543411610423576040517f08c379a000000000000000000000000000000000000000000000000000000000815260040161041a906119b8565b60405180910390fd5b600460009054906101000a900473ffffffffffffffffffffffffffffffffffffffff1673ffffffffffffffffffffffffffffffffffffffff163373ffffffffffffffffffffffffffffffffffffffff1614156104b4576040517f08c379a00000000000000000000000000000000000000000000000000000000081526004016104ab90611978565b60405180910390fd5b6000600554111561052b57600660009054906101000a900473ffffffffffffffffffffffffffffffffffffffff1673ffffffffffffffffffffffffffffffffffffffff166108fc6005549081150290604051600060405180830381858888f19350505050158015610529573d6000803e3d6000fd5b505b3460058190555033600660006101000a81548173ffffffffffffffffffffffffffffffffffffffff021916908373ffffffffffffffffffffffffffffffffffffffff160217905550426007819055507f260af193bca9887ed687c3327bdf90213310b399d182f7ce0bf495906792beef30336040516105ab9291906117bf565b60405180910390a1565b60006060806000806000806060600460009054906101000a900473ffffffffffffffffffffffffffffffffffffffff1660006001600554600660009054906101000a900473ffffffffffffffffffffffffffffffffffffffff16600354600960009054906101000a900460ff166002868054600181600116156101000203166002900480601f0160208091040260200160405190810160405280929190818152602001828054600181600116156101000203166002900480156106b95780601f1061068e576101008083540402835291602001916106b9565b820191906000526020600020905b81548152906001019060200180831161069c57829003601f168201915b50505050509650858054600181600116156101000203166002900480601f0160208091040260200160405190810160405280929190818152602001828054600181600116156101000203166002900480156107555780601f1061072a57610100808354040283529160200191610755565b820191906000526020600020905b81548152906001019060200180831161073857829003601f168201915b50505050509550808054600181600116156101000203166002900480601f0160208091040260200160405190810160405280929190818152602001828054600181600116156101000203166002900480156107f15780601f106107c6576101008083540402835291602001916107f1565b820191906000526020600020905b8154815290600101906020018083116107d457829003601f168201915b50505050509050975097509750975097509750975097509091929394959697565b60085481565b600460009054906101000a900473ffffffffffffffffffffffffffffffffffffffff1681565b60018054600181600116156101000203166002900480601f0160208091040260200160405190810160405280929190818152602001828054600181600116156101000203166002900480156108d45780601f106108a9576101008083540402835291602001916108d4565b820191906000526020600020905b8154815290600101906020018083116108b757829003601f168201915b505050505081565b600660009054906101000a900473ffffffffffffffffffffffffffffffffffffffff1673ffffffffffffffffffffffffffffffffffffffff163373ffffffffffffffffffffffffffffffffffffffff161461096c576040517f08c379a0000000000000000000000000000000000000000000000000000000008152600401610963906118b8565b60405180910390fd5b6000600481111561097957fe5b600960009054906101000a900460ff16600481111561099457fe5b14806109c55750600160048111156109a857fe5b600960009054906101000a900460ff1660048111156109c357fe5b145b610a04576040517f08c379a00000000000000000000000000000000000000000000000000000000081526004016109fb90611938565b60405180910390fd5b600060075442031015610a4c576040517f08c379a0000000000000000000000000000000000000000000000000000000008152600401610a43906118f8565b60405180910390fd5b600060085442031015610a94576040517f08c379a0000000000000000000000000000000000000000000000000000000008152600401610a8b90611998565b60405180910390fd5b600660009054906101000a900473ffffffffffffffffffffffffffffffffffffffff1673ffffffffffffffffffffffffffffffffffffffff166108fc479081150290604051600060405180830381858888f19350505050158015610afc573d6000803e3d6000fd5b50600460009054906101000a900473ffffffffffffffffffffffffffffffffffffffff16600660006101000a81548173ffffffffffffffffffffffffffffffffffffffff021916908373ffffffffffffffffffffffffffffffffffffffff16021790555060006005819055506003600960006101000a81548160ff02191690836004811115610b8757fe5b02179055507f260af193bca9887ed687c3327bdf90213310b399d182f7ce0bf495906792beef3033604051610bbd9291906117bf565b60405180910390a1565b600460009054906101000a900473ffffffffffffffffffffffffffffffffffffffff1673ffffffffffffffffffffffffffffffffffffffff163373ffffffffffffffffffffffffffffffffffffffff1614610c57576040517f08c379a0000000000000000000000000000000000000000000000000000000008152600401610c4e906118d8565b60405180910390fd5b60006004811115610c6457fe5b600960009054906101000a900460ff166004811115610c7f57fe5b1415610cc0576040517f08c379a0000000000000000000000000000000000000000000000000000000008152600401610cb790611918565b60405180910390fd5b8060029080519060200190610cd69291906112bc565b506000471115610d4a57600460009054906101000a900473ffffffffffffffffffffffffffffffffffffffff1673ffffffffffffffffffffffffffffffffffffffff166108fc479081150290604051600060405180830381858888f19350505050158015610d48573d6000803e3d6000fd5b505b6004600960006101000a81548160ff02191690836004811115610d6957fe5b02179055507f260af193bca9887ed687c3327bdf90213310b399d182f7ce0bf495906792beef3033604051610d9f9291906117bf565b60405180910390a150565b60055481565b600460009054906101000a900473ffffffffffffffffffffffffffffffffffffffff1673ffffffffffffffffffffffffffffffffffffffff163373ffffffffffffffffffffffffffffffffffffffff1614610e40576040517f08c379a0000000000000000000000000000000000000000000000000000000008152600401610e37906118d8565b60405180910390fd5b60006004811115610e4d57fe5b600960009054906101000a900460ff166004811115610e6857fe5b14610ea8576040517f08c379a0000000000000000000000000000000000000000000000000000000008152600401610e9f90611958565b60405180910390fd5b60006005541115610f8857600660009054906101000a900473ffffffffffffffffffffffffffffffffffffffff1673ffffffffffffffffffffffffffffffffffffffff166108fc479081150290604051600060405180830381858888f19350505050158015610f1b573d6000803e3d6000fd5b50600460009054906101000a900473ffffffffffffffffffffffffffffffffffffffff16600660006101000a81548173ffffffffffffffffffffffffffffffffffffffff021916908373ffffffffffffffffffffffffffffffffffffffff16021790555060006005819055505b6002600960006101000a81548160ff02191690836004811115610fa757fe5b02179055507f260af193bca9887ed687c3327bdf90213310b399d182f7ce0bf495906792beef3033604051610fdd9291906117bf565b60405180910390a1565b600460009054906101000a900473ffffffffffffffffffffffffffffffffffffffff1673ffffffffffffffffffffffffffffffffffffffff163373ffffffffffffffffffffffffffffffffffffffff1614611077576040517f08c379a000000000000000000000000000000000000000000000000000000000815260040161106e906118d8565b60405180910390fd5b6000600481111561108457fe5b600960009054906101000a900460ff16600481111561109f57fe5b146110df576040517f08c379a00000000000000000000000000000000000000000000000000000000081526004016110d690611958565b60405180910390fd5b6000600554111561111a57426008819055506001600960006101000a81548160ff0219169083600481111561111057fe5b021790555061113f565b6002600960006101000a81548160ff0219169083600481111561113957fe5b02179055505b7f260af193bca9887ed687c3327bdf90213310b399d182f7ce0bf495906792beef30336040516111709291906117bf565b60405180910390a1565b60035481565b60028054600181600116156101000203166002900480601f0160208091040260200160405190810160405280929190818152602001828054600181600116156101000203166002900480156112165780601f106111eb57610100808354040283529160200191611216565b820191906000526020600020905b8154815290600101906020018083116111f957829003601f168201915b505050505081565b60008054600181600116156101000203166002900480601f0160208091040260200160405190810160405280929190818152602001828054600181600116156101000203166002900480156112b45780601f10611289576101008083540402835291602001916112b4565b820191906000526020600020905b81548152906001019060200180831161129757829003601f168201915b505050505081565b828054600181600116156101000203166002900490600052602060002090601f0160209004810192826112f25760008555611339565b82601f1061130b57805160ff1916838001178555611339565b82800160010185558215611339579182015b8281111561133857825182559160200191906001019061131d565b5b509050611346919061134a565b5090565b5b8082111561136357600081600090555060010161134b565b5090565b600082601f83011261137857600080fd5b813561138b61138682611a24565b6119f3565b915080825260208301602083018583830111156113a757600080fd5b6113b2838284611b19565b50505092915050565b6000602082840312156113cd57600080fd5b600082013567ffffffffffffffff8111156113e757600080fd5b6113f384828501611367565b91505092915050565b61140581611ad1565b82525050565b61141481611a82565b82525050565b61142381611a70565b82525050565b61143281611ae3565b82525050565b600061144382611a54565b61144d8185611a5f565b935061145d818560208601611b28565b61146681611b5d565b840191505092915050565b600061147e601f83611a5f565b91507f4f6e6c7920686967686573742062757965722063616e206f7065726174652e006000830152602082019050919050565b60006114be601783611a5f565b91507f4f6e6c79206f776e65722063616e206f7065726174652e0000000000000000006000830152602082019050919050565b60006114fe605b83611a5f565b91507f5265766f6b652063616e206f6e6c79206265207265717565737465642061667460008301527f6572206f6e65207765656b206966206f776e657220646f6573206e6f7420636f60208301527f6e6669726d20616e6420656e6420746869732061756374696f6e2e00000000006040830152606082019050919050565b600061158a601a83611a5f565b91507f546869732061756374696f6e206973206e6f7420656e6465642e0000000000006000830152602082019050919050565b60006115ca602b83611a5f565b91507f43616e6e6f74207265766f6b6520612063616e63656c65642f636f6d706c657460008301527f65642061756374696f6e2e0000000000000000000000000000000000000000006020830152604082019050919050565b6000611630601683611a5f565b91507f546869732061756374696f6e20697320656e6465642e000000000000000000006000830152602082019050919050565b6000611670602983611a5f565b91507f43616e206e6f742062696420666f7220796f7572206f776e2061756374696f6e60008301527f2070726f647563742100000000000000000000000000000000000000000000006020830152604082019050919050565b60006116d6605683611a5f565b91507f5265766f6b652063616e206f6e6c79206265207265717565737465642061667460008301527f6572206f6e65207765656b206966206f776e657220646f6573206e6f7420736860208301527f697020616674657220636f6e6669726d6174696f6e2e000000000000000000006040830152606082019050919050565b6000611762601b83611a5f565b91507f506c656173652062696420612068696768657220616d6f756e742e00000000006000830152602082019050919050565b61179e81611ac7565b82525050565b60006020820190506117b9600083018461140b565b92915050565b60006040820190506117d4600083018561141a565b6117e160208301846113fc565b9392505050565b6000610100820190506117fe600083018b61141a565b8181036020830152611810818a611438565b905081810360408301526118248189611438565b90506118336060830188611795565b611840608083018761141a565b61184d60a0830186611795565b61185a60c0830185611429565b81810360e083015261186c8184611438565b90509998505050505050505050565b60006020820190506118906000830184611429565b92915050565b600060208201905081810360008301526118b08184611438565b905092915050565b600060208201905081810360008301526118d181611471565b9050919050565b600060208201905081810360008301526118f1816114b1565b9050919050565b60006020820190508181036000830152611911816114f1565b9050919050565b600060208201905081810360008301526119318161157d565b9050919050565b60006020820190508181036000830152611951816115bd565b9050919050565b6000602082019050818103600083015261197181611623565b9050919050565b6000602082019050818103600083015261199181611663565b9050919050565b600060208201905081810360008301526119b1816116c9565b9050919050565b600060208201905081810360008301526119d181611755565b9050919050565b60006020820190506119ed6000830184611795565b92915050565b6000604051905081810181811067ffffffffffffffff82111715611a1a57611a19611b5b565b5b8060405250919050565b600067ffffffffffffffff821115611a3f57611a3e611b5b565b5b601f19601f8301169050602081019050919050565b600081519050919050565b600082825260208201905092915050565b6000611a7b82611aa7565b9050919050565b6000611a8d82611aa7565b9050919050565b6000819050611aa282611b6e565b919050565b600073ffffffffffffffffffffffffffffffffffffffff82169050919050565b6000819050919050565b6000611adc82611af5565b9050919050565b6000611aee82611a94565b9050919050565b6000611b0082611b07565b9050919050565b6000611b1282611aa7565b9050919050565b82818337600083830152505050565b60005b83811015611b46578082015181840152602081019050611b2b565b83811115611b55576000848401525b50505050565bfe5b6000601f19601f8301169050919050565b60058110611b7f57611b7e611b5b565b5b5056fea2646970667358221220e4f4d591fd4586b95afdabf6594bd3c246219c5f9cbeb23116f3fa0ad7af21bf64736f6c63430007040033",
  "immutableReferences": {},
  "source": "// SPDX-License-Identifier: MIT\r\npragma solidity ^0.7.4;\r\npragma experimental ABIEncoderV2;\r\n\r\ncontract Auction {\r\n    enum AuctionState {OPEN, CONFIRMED, CANCELED, REVOKED, COMPLETED}\r\n    string public item;\r\n    string public itemDescription;\r\n    string public shippingInfo;\r\n    uint256 public startPrice;\r\n    address payable public owner;\r\n\r\n    uint256 public currentHighestBidding;\r\n    address payable private currentHighestBuyer;\r\n    uint256 public lastUpdateTimestamp;\r\n    uint256 public confirmTimestamp;\r\n    AuctionState public currentState;\r\n\r\n    event AuctionUpdated(address auctionAddress, address sender);\r\n\r\n    constructor(\r\n        string memory _item,\r\n        string memory _itemDescription,\r\n        uint256 _startPrice,\r\n        address payable _owner\r\n    ) {\r\n        item = _item;\r\n        itemDescription = _itemDescription;\r\n        startPrice = _startPrice;\r\n        owner = _owner;\r\n\r\n        shippingInfo = \"\";\r\n        currentHighestBidding = 0;\r\n        currentHighestBuyer = msg.sender;\r\n        lastUpdateTimestamp = block.timestamp;\r\n        confirmTimestamp = 0;\r\n        currentState = AuctionState.OPEN;\r\n    }\r\n\r\n    modifier restricted() {\r\n        require(msg.sender == owner, \"Only owner can operate.\");\r\n        _;\r\n    }\r\n\r\n    modifier openAuction() {\r\n        require(currentState == AuctionState.OPEN, \"This auction is ended.\");\r\n        _;\r\n    }\r\n\r\n    modifier closeAuction() {\r\n        require(\r\n            currentState != AuctionState.OPEN,\r\n            \"This auction is not ended.\"\r\n        );\r\n        _;\r\n    }\r\n\r\n    /** Buyer bid for an open auction */\r\n    function bid() public payable openAuction {\r\n        require(msg.value > startPrice, \"Please bid a higher amount.\");\r\n        require(\r\n            msg.value > currentHighestBidding,\r\n            \"Please bid a higher amount.\"\r\n        );\r\n        require(\r\n            msg.sender != owner,\r\n            \"Can not bid for your own auction product!\"\r\n        );\r\n        // Use currentHighestBidding to decide if this is the first bid\r\n        // because address(this).balance has been updated when executing this function\r\n        if (currentHighestBidding > 0) {\r\n            currentHighestBuyer.transfer(currentHighestBidding);\r\n        }\r\n        currentHighestBidding = msg.value;\r\n        currentHighestBuyer = msg.sender;\r\n        lastUpdateTimestamp = block.timestamp;\r\n        emit AuctionUpdated(address(this), msg.sender);\r\n    }\r\n\r\n    /** Owner confirm an open auction, prepare to ship */\r\n    function end() public restricted openAuction {\r\n        if (currentHighestBidding > 0) {\r\n            confirmTimestamp = block.timestamp;\r\n            currentState = AuctionState.CONFIRMED;\r\n        } else {\r\n            currentState = AuctionState.CANCELED;\r\n        }\r\n        emit AuctionUpdated(address(this), msg.sender);\r\n    }\r\n\r\n    /** Owner update shipping info after shipping */\r\n    function updateShippingInfo(string memory _shippingInfo)\r\n        public\r\n        restricted\r\n        closeAuction\r\n    {\r\n        // update shipping info\r\n        shippingInfo = _shippingInfo;\r\n\r\n        // if balance is not empty, transfer to owner\r\n        if (address(this).balance > 0) {\r\n            owner.transfer(address(this).balance);\r\n        }\r\n\r\n        currentState = AuctionState.COMPLETED;\r\n        emit AuctionUpdated(address(this), msg.sender);\r\n    }\r\n\r\n    /** Owner cancel an open auction */\r\n    function cancel() public restricted openAuction {\r\n        // owner cancel this auction\r\n        if (currentHighestBidding > 0) {\r\n            currentHighestBuyer.transfer(address(this).balance);\r\n            currentHighestBuyer = owner;\r\n            currentHighestBidding = 0;\r\n        }\r\n        currentState = AuctionState.CANCELED;\r\n        emit AuctionUpdated(address(this), msg.sender);\r\n    }\r\n\r\n    /** highest buyer revoke an open or confirmed auction, if owner did not response for a long time */\r\n    function revoke() public {\r\n        // highest buyer revoke this auction\r\n        // due to not confirm or shipping after a period of time\r\n        require(\r\n            msg.sender == currentHighestBuyer,\r\n            \"Only highest buyer can operate.\"\r\n        );\r\n        require(\r\n            currentState == AuctionState.OPEN ||\r\n                currentState == AuctionState.CONFIRMED,\r\n            \"Cannot revoke a canceled/completed auction.\"\r\n        );\r\n        // changes to one week in production enviornment\r\n        require(\r\n            block.timestamp - lastUpdateTimestamp >= 0,\r\n            \"Revoke can only be requested after one week if owner does not confirm and end this auction.\"\r\n        );\r\n        // changes to one week in production enviornment\r\n        require(\r\n            block.timestamp - confirmTimestamp >= 0,\r\n            \"Revoke can only be requested after one week if owner does not ship after confirmation.\"\r\n        );\r\n        currentHighestBuyer.transfer(address(this).balance);\r\n        currentHighestBuyer = owner;\r\n        currentHighestBidding = 0;\r\n        currentState = AuctionState.REVOKED;\r\n        emit AuctionUpdated(address(this), msg.sender);\r\n    }\r\n\r\n    /** get auction summary */\r\n    function getSummary()\r\n        public\r\n        view\r\n        returns (\r\n            address,\r\n            string memory,\r\n            string memory,\r\n            uint256,\r\n            address,\r\n            uint256,\r\n            AuctionState,\r\n            string memory\r\n        )\r\n    {\r\n        return (\r\n            owner,\r\n            item,\r\n            itemDescription,\r\n            currentHighestBidding,\r\n            currentHighestBuyer,\r\n            startPrice,\r\n            currentState,\r\n            shippingInfo\r\n        );\r\n    }\r\n}\r\n\r\ncontract AuctionFactory {\r\n    struct AuctionSummary {\r\n        address auctionAddress;\r\n        string item;\r\n        string itemDescription;\r\n        uint256 startPrice;\r\n    }\r\n\r\n    address private platform;\r\n    AuctionSummary[] public auctionSummaries;\r\n    event AuctionCreated(address auctionAddress, address ownerAddress);\r\n\r\n    constructor() {\r\n        platform = msg.sender;\r\n    }\r\n\r\n    function createAuction(\r\n        string memory _item,\r\n        string memory _itemDescription,\r\n        uint256 _startPrice\r\n    ) public {\r\n        Auction newAuction =\r\n            new Auction(_item, _itemDescription, _startPrice, msg.sender);\r\n        address newAuctionAddress = address(newAuction);\r\n        AuctionSummary memory auctionSummary =\r\n            AuctionSummary({\r\n                auctionAddress: newAuctionAddress,\r\n                item: _item,\r\n                itemDescription: _itemDescription,\r\n                startPrice: _startPrice\r\n            });\r\n        auctionSummaries.push(auctionSummary);\r\n        emit AuctionCreated(newAuctionAddress, msg.sender);\r\n    }\r\n\r\n    function getAuctionSummaries()\r\n        public\r\n        view\r\n        returns (AuctionSummary[] memory)\r\n    {\r\n        return auctionSummaries;\r\n    }\r\n}\r\n",
  "sourcePath": "/Users/jiaxinwang/DropboxII/Dropbox/eth-auction/contracts/Auction.sol",
  "compiler": {
    "name": "solc",
    "version": "0.7.4+commit.3f05b770.Emscripten.clang"
  },
  "schemaVersion": "3.3.1",
  "updatedAt": "2021-03-28T13:10:40.490Z",
  "networkType": "ethereum",
  "devdoc": {
    "kind": "dev",
    "methods": {},
    "version": 1
  },
  "userdoc": {
    "kind": "user",
    "methods": {
      "bid()": {
        "notice": "Buyer bid for an open auction "
      },
      "cancel()": {
        "notice": "Owner cancel an open auction "
      },
      "end()": {
        "notice": "Owner confirm an open auction, prepare to ship "
      },
      "getSummary()": {
        "notice": "get auction summary "
      },
      "revoke()": {
        "notice": "highest buyer revoke an open or confirmed auction, if owner did not response for a long time "
      },
      "updateShippingInfo(string)": {
        "notice": "Owner update shipping info after shipping "
      }
    },
    "version": 1
  }
}